:020000040800F2
:10000000100700204D270008AD070008AF070008C3
:1000100000000000000000000000000000000000E0
:10002000000000000000000000000000B107000810
:100030000000000000000000B3070008B50700083A
:100040005F2700085F2700085F2700085F27000878
:100050005F2700085F270008B70700085F27000830
:10006000000000005F2700085F2700085F270008E6
:100070005F270008DF0700085F2700085F270008E8
:100080008508000800000000000000009B08000830
:10009000000000005F2700085F2700085F270008B6
:1000A000000000005F27000800000000B108000801
:1000B00000F002F800F046F80CA030C80838241808
:1000C0002D18A246671EAB4654465D46AC4201D190
:1000D00000F038F87E460F3E0FCCB646012633427C
:1000E00000D0FB1AA246AB4633431847CC3600007B
:1000F000EC360000103A02D378C878C1FAD852071B
:1001000001D330C830C101D504680C6070470000CD
:100110000023002400250026103A01D378C1FBD823
:10012000520700D330C100D50B60704710B5642969
:1001300002D102F01BFC10BD002010BD1FB51FBD79
:1001400010B510BD02F040FF1146FFF7F7FF00F0B9
:1001500071F802F058FF03B4FFF7F2FF03BC00F0A0
:10016000CFFB000010B5A24C01E000F044FC641E7F
:10017000FBD210BD9E48401EFDD270479C48401ED9
:10018000FDD270479A48401EFDD2704770B5994E17
:100190000C460546012809D1E1B2304602F058F973
:1001A0008021304602F03DFA0028F9D0022D14D10A
:1001B0002004010E304602F04BF98021304602F057
:1001C00030FA0028F9D0E1B2304602F041F980213E
:1001D000304602F026FA0028F9D070BD10B58648E6
:1001E00000F0D2FE062000F0D2FE844800F0D2FEDD
:1001F00000F0D3FE00F0D8FE10BD10B500F0BDF841
:10020000582000F064FC00F0CDFB4B20C00100F052
:1002100080FB00F04DF900F085F900F0C0F90020F6
:1002200000F0F5F900F03AFAFFF7D8FF002000F0EF
:10023000EEF910BDFFF7E1FF71499620087000F05C
:10024000EEF9704C0220607000F0EFFB7D26F600A6
:10025000002700F01FFE00F081FE00F061FC00F0BE
:10026000C2FC00F008FD00F034FD00F09AFD00F043
:100270006DFD00F0BBFD00F0E3FDFF2191316068F2
:1002800002F0AAFB002954D16078002851D15EA069
:1002900002F028FB5F4801685FA002F023FB5FA02B
:1002A00002F020FB614801685BA002F01BFB60A02C
:1002B000E56802F017FB294657A002F013FB60A087
:1002C00002F010FB6248016853A002F00BFB61A032
:1002D00002F008FB614801684FA002F003FB60A038
:1002E00002F000FB604801684BA002F0FBFA5F4897
:1002F000016849A002F0F6FA5DA002F0F3FA5E4848
:10030000016845A002F0EEFA5C48016842A002F0E4
:10031000E9FA5BA002F0E6FA394801785CA002F045
:10032000E1FA5DA002F0DEFA5E4801783AA002F040
:10033000D9FA00F032FE2E49A068884201D2401C52
:10034000A060884200D3A7606568B54207D2142137
:10035000A06802F041FB002901D16D1C6560606856
:10036000B04203D367602078401C207020780528B5
:1003700000D26EE7052020706BE71CB500204A4CC8
:1003800000900190206801210904884320604748BB
:1003900001681022114301600168012211430160CC
:1003A000606860606068606060683F21090488433D
:1003B000606060680521C90408436060052000F0A2
:1003C00087FF20680121090608432060206880011A
:1003D000FCD5606880088000606060680221084386
:1003E000606060680007800F0228FAD11CBD000021
:1003F0001027000000380140555500008813000008
:100400002C000020040000205642554620564F4C38
:1004100054203A0038000020256420004D43555FE9
:100420005643435F564F4C54203A20004000002072
:100430004343522043555252454E543A0000000067
:1004400044494D4D494E472056414C3A000000006A
:100450003400002054454D50203A20003C0000203C
:10046000464441203A20000048000020500000206F
:10047000464442203A2000004C0000205400002056
:10048000424F4F53542050574D20445554593A0031
:1004900025640D0A2000000054445F524553554C1A
:1004A000543A00002E0000200010024000200240BC
:1004B00038B50D20694608700020487001248C7002
:1004C000684601F0C5FC0121C80200F0D8FFFF20FA
:1004D0005749E0300881564804212038C16281899B
:1004E0002143818101881022114301800188214329
:1004F000018038BD1CB50121480400F0B7FF402041
:1005000000900320694648710120087100200924E9
:100510008871E406204600F080FD4021204600F06E
:10052000DEFD1CBD7CB50121480400F09FFF40208A
:1005300000900220694608710320487100250926B1
:100540008D710124F606CC71304600F066FD402125
:10055000304600F0C4FD01220621304600F0C9FDFE
:100560000121022000F094FF32490F200881314818
:10057000314A2038C2620A8822430A80018B6022F5
:10058000114301834563018B0422114301830188D8
:100590008022114301800188214301807CBDFEB58A
:1005A0000121480400F062FF1020009002266946F5
:1005B0000E7103204871002509278D710124FF0663
:1005C000CC71384600F029FD04221146384600F06F
:1005D00090FD0121080200F05BFF18490E811748C9
:1005E000FF222038C2620A8822430A80018B6022DF
:1005F000114301834563018B042211430183018868
:10060000802211430180018821430180FEBD0A49F7
:10061000891C884202D20749203948637047FF216C
:100620000231884202D205492039486370470000F0
:10063000202C0140200400401F0300002020004027
:100640007CB50121480400F011FF0121880400F06D
:100650000DFF0121880500F009FF262000900324EA
:1006600069460C7100258D71CD7109204C71C00651
:1006700000F0D3FC0220009069460C718D71CD71A1
:100680004C71454800F0C9FC0120694600904C714E
:1006900008718D71414800F0C0FC7CBDF0B591B08F
:1006A000FFF7CEFF3E4D284601F010FC01214E021F
:1006B000304600F0E4FE0121084600F0D7FE394F35
:1006C000384601F015FD3648002440300690364883
:1006D00007900620099080200B9040000C90089411
:1006E00080000D9020200E900A9400020F9006A921
:1006F0001094384601F02EFD0121384601F053FDDB
:100700000221284601F0C1FC684601F000FC0120EE
:10071000694600940871029404942846059401F0F7
:10072000E3FB02221146284601F05EFC022204216E
:10073000284601F059FC02222021284601F054FCF1
:1007400002223146284601F04FFC0622F1012846DC
:1007500001F04AFC06223102284601F045FC012046
:1007600001F021FC012001F029FC284601F05FFC8A
:100770000121284601F07FFC0121284601F0CFFB32
:100780000121284601F091FC0028F9D0284601F00B
:100790006AFC11B0F0BD00000004004800140048DD
:1007A0000024014008000240840000207047FEE75A
:1007B00070477047704710B5082001F0B1FF00285E
:1007C00009D009200821C00600F075FC4049012825
:1007D00000D000200870082001F0AEFF10BDF8B571
:1007E00001213C4801F072FA002846D03A4C01221F
:1007F0002168D202914206D8384800886368C00850
:100800004043C01860600120C002814225D13448B5
:100810008169C1618E464169816107694761C66826
:1008200006618568C5604368836002688C464260E3
:10083000616801608818591940188019C01960440E
:1008400070448009A06002F0C4F902F0E5FB02F0F8
:1008500073F9E0600020606020602249E068096868
:10086000214D4843214902F0B7F828600121206852
:10087000C902884201D2401C20600121154801F0C4
:1008800031FAF8BD10B51A4C0121204601F01EFACC
:100890000121204601F026FA10BD10B5154C0121AA
:1008A000204601F013FA0121204601F01BFA10BD89
:1008B00010B5124C1049204601F0BCFE002805D0AE
:1008C0008021204601F0ADFE0028F9D010BD0000C7
:1008D00000000020002C01401400002084000020B3
:1008E0009000002040000020100000208A0C000032
:1008F00000040040002000400501050000380140D0
:1009000070472649CA691206FCD52449203108815E
:100910007047F1B501218AB0480400F0A7FD01211C
:10092000880300F0ACFD0921CF060122384600F013
:10093000E0FB01220A21384600F0DBFB03204002E5
:1009400000900226684606710321417100248471DB
:100950000125C5716946384600F05FFB0A98089486
:1009600004940594069403900C200C4C079003A962
:10097000204601F06AFC01220949204601F025FECB
:100980000121204601F0D3FC1B216846017246720A
:10099000857202A801F05CFA0BB0F0BD003801408E
:1009A00005010500FEB521200121400400F05EFD97
:1009B00089200090032568464571012404710026B2
:1009C00009278671FF066946384600F026FBA0021B
:1009D000009068464571047186716946384600F09A
:1009E0001CFB68460094457104718671694629486C
:1009F00000F013FBFEBD10B509201021C00600F069
:100A00006EFB10BD10B509201021C00600F065FB7B
:100A100010BD10B501211F4800F05FFB10BD10B5DF
:100A200001211C4800F05BFB10BD10B5092001211D
:100A3000C00600F052FB10BD10B509200121C00610
:100A400000F04DFB10BD10B509200821C00600F0D4
:100A500046FB10BD10B509200821C00600F03DFB83
:100A600010BD10B509208021C00600F036FB10BD76
:100A700010B509208021C00600F031FB10BD10B573
:100A80000221054800F017FB0449012800D000208E
:100A9000087010BD00140048000400480000002049
:100AA00010B5062101F098FF1B49498848431B49AE
:100AB000401E4861012088610A6902430A61086991
:100AC000C003FCD5086940084000086110BD134907
:100AD0000A6904239A430A610A6902239A430A6154
:100AE0000D49C0087D220870D200504348807047ED
:100AF0000949097841430948491E41610121816141
:100B000002690A4302610169C903FCD50169490808
:100B100049000161704700002800002000E000E06B
:100B2000F8B5FA4DF848EF7806686421EA6A30466D
:100B3000C91B784351434018642101F04DFF04461E
:100B40000A3FF8B2E8700A2801D80A20E870EC627F
:100B5000286B844201D3271A00E0071BDC2E01D842
:100B60000020A8603046DD380421132803D8A86887
:100B7000042800D3A960F13E1D2E00D2A960E448EC
:100B8000844202D31920400168602646FF3EFF21BF
:100B90000F3E91318E4210D2142F0ED9DD48A100A4
:100BA0000818DD490858DD4902F05AFADC4902F01C
:100BB00013F802F0C1F82C636860FF209130864280
:100BC00010D2142F0ED8286B8100D2480818D249B1
:100BD0000858D24902F044FAD14901F0FDFF02F071
:100BE000ABF86860F8BDF8B5C84D19276E68AC68F9
:100BF0007F01B4420AD2BC4208D2CA4864210068CC
:100C000001F0EAFE002901D1641CAC60A868B04282
:100C100003D9042801D9401EA860C349E868884266
:100C200006D2A968042903D98A04120E891AA96078
:100C3000BE49884204D9A968B94201D2491CA960B9
:100C4000B9490422C839884200D2AA60AE480021BE
:100C50000068DC2800D8A960DD38312803D2A868F4
:100C6000042800D3AA60A878012800D1A960A86848
:100C7000FFF7CDFCF8BD70B5AD488088A34D69691C
:100C80004843AC4901F0A8FE0446E860A54832217B
:100C9000006801F0A1FE00290FD1A748844204D9C1
:100CA0002878FF2801D2401C2870A448844204D22E
:100CB00028780A2801D9401E28709C48844204D311
:100CC0002878FF2801D2401C28702878FFF7A7FC5D
:100CD00070BD70B58D4C9A49E068884202D3FFF729
:100CE000B9FE01E0FFF7AFFE8E4D0A21286801F042
:100CF00073FE4B267601002905D1E068B04202D38D
:100D0000FFF7A8FE01E0FFF79EFE8E480078052859
:100D10000DD20521286801F05FFE002905D1E068A9
:100D2000B04202D3FFF796FE01E0FFF78CFEFF20F2
:100D3000E168F530814205D283490968814202D2D7
:100D4000FFF788FE70BDFFF77EFE70BD70B5784876
:100D500000896E4E716948437449643901F03CFE64
:100D600005467A48018B794820304488081B642165
:100D70004843502101F030FE0146AC4206D8281B02
:100D80006422504301F028FE6E21091AAC4206D9B4
:100D9000601B6422504301F01FFE01466E31316139
:100DA00070BD10B568480521006801F015FE0029E6
:100DB0001BD16648408B664948435D4949890A22F0
:100DC000514301F009FE514A5178802904D29369B8
:100DD0001818491C90615170C8B2802805D19069DB
:100DE000C009002191615170506110BD10B550488B
:100DF000C088464A0023516948439168000B0A297C
:100E000006D2322803D90446323CD46100E0D361D3
:100E10000C460A3C0A2C06D21E2803D904461E3C66
:100E2000D46100E0D3610C46143C3C2C04D214285D
:100E300001D90346143BD361502900D3D06110BDC2
:100E400010B53B484088314A0023516948439168B6
:100E5000000B0A2906D2322803D90446323C146218
:100E600000E013620C460A3C0A2C06D21E2803D965
:100E700004461E3C146200E013620C46143C3C2CF9
:100E800004D2142801D90346143B1362502900D31D
:100E9000106210BDF8B523481421006801F09CFDD4
:100EA000002927D1194A2B4DD069234C41192A4FCB
:100EB0001046224EC06800233234B94207D3B042F4
:100EC00005D9516AA14203D8491C516200E053621E
:100ED000116A4919B94207D3B04205D9906AA042B4
:100EE00003D8401C906200E093629068042802D20C
:100EF00093625362F8BD506AA04202D2906AA04247
:100F0000F8D301209070F8BD100000202C000020C4
:100F10009E020000C8FBFFFF10310008000048449B
:100F20000000C8420C0000206C070000480D0000C3
:100F3000840000208C0E0000F6090000CA080000A2
:100F4000B80B00000400002008000020A0F7FF1FDD
:100F5000E880000024FAFFFF1505000010B5094CD9
:100F6000A078002803D1FFF75AFDFFF75EFDA078B7
:100F7000012805D1FFF760FDFFF74BFDFFF771FD7D
:100F800010BD00002C0000200D49086070470C497E
:100F9000486070470A4988607047094909480860F5
:100FA000704707490861704705490748086070475E
:100FB000034A0146D26800200A4200D0012070474F
:100FC00000300040AAAA0000CCCC0000092110B5D6
:100FD000C906884202D101214C0404E04D498842EF
:100FE00009D101210402204600F05BFA00212046CD
:100FF00000F057FA10BD4849884202D1012104028D
:10100000F1E74649884202D101210C05EBE744494A
:101010008842EFD101218C05E5E7F0B500220325D8
:1010200001230C6893401C409C422AD10C79012C6E
:1010300001D0022C12D1876854002E46A640B74337
:1010400087604E79A64084682643866084889C43E6
:10105000848084888B7993401C4384800668530085
:101060002C469C40A64306600E7907689E403E438E
:101070000660C668A643C660CC799C40C3681C4322
:10108000C460521C102ACBD3F0BD26490160002158
:101090000171022242718171C1717047012208B54C
:1010A00012040A430092C261C1610099C161C16921
:1010B000C069009008BD0246128A00200A4200D092
:1010C00001207047008A70470246928A00200A4237
:1010D00000D001207047808A704781617047018588
:1010E0007047002A01D08161704701857047818275
:1010F00070474B07DB0E9A40C90810B589000818E5
:10110000016A0F249C40A1430162016A11430162FC
:1011100010BD00000004004800080048000C004812
:1011200000140048FFFF0000F74801680122114346
:1011300001604168F54A114041600168F44A11407C
:1011400001600168012292049143016041683F22DD
:10115000120491434160C16A09090901C162016B2E
:10116000FF22543291430163416B490849004163B6
:10117000002181607047E44900228A7088707047BE
:1011800003460020E04A59090CD001290CD002295D
:101190000CD0516BDA06D20E012393400B4200D0E3
:1011A000012070471168F5E7116AF3E7516AF1E72A
:1011B00018B500200524240300901120FFF7E0FF5C
:1011C0000099491C0091A14201D00028F5D01120BE
:1011D000FFF7D6FF002800D0012018BDCA4A1168C9
:1011E000F8239943C000084310607047C64900289F
:1011F000086802D00122104301E040084000086066
:101200007047C14A516BF8239943C00008435063AB
:101210007047BD490028486B02D00122104301E00D
:101220004008400048637047B74904220028486BD3
:1012300001D0904300E0104348637047B2490A6A06
:10124000520852000A620A6A04239A430A620A6A2E
:1012500002430A627047AC490A6A18239A430A6239
:101260000A6A02430A627047A7490028486A02D006
:101270000122104301E0400840004862704710B569
:10128000A14A53683D242404A34353605368084390
:101290000343536010BD01229B49120600280868D1
:1012A00001D0104300E0904308607047964AD16A2D
:1012B000090909010143D162704701229249D20410
:1012C0000028086801D0104300E090430860704790
:1012D0008D49C87170478C4A51688908890001435B
:1012E00051607047884840680C2108407047864A22
:1012F0005168F0239943014351607047824A516815
:1013000007231B0299430143516070477E494A6895
:1013100001239B039A434A604A6883B21A434A6096
:101320000A6B8B159A430A630A6B000C02430A632B
:10133000704775490A6B40239A430A630A6B02435C
:101340000A63704770490A6B10239A430A630A6B59
:1013500002430A6370476C490A6B920892000A6361
:101360000A6B02430A637047F8B5674E044670681B
:101370000C21684D084003D0042801D0082801D072
:10138000256012E0716870680122890212040F0F53
:101390001040BF1C00281CD0F06A0107090F284626
:1013A000491C01F019FB7843206070685A4B000615
:1013B000000F1A5C20680146D140616072685205D6
:1013C000520F9A5CD140A160326BD20505D4534ACA
:1013D00009E0534847432760E7E77268520401D4A5
:1013E0004A0800E08A08E260326B4E4B520603D492
:1013F0004C4A1232226100E02361326BD20601D4E2
:10140000656100E06061326B92070FD0316B890734
:10141000890F01290CD0306B8007800F022809D07A
:10142000306BC043800700D1A561F8BDA161F8BD54
:10143000A061F8BDA361F8BD33490A6A02430A629C
:10144000704731490028374A086A01D0104300E04C
:1014500090430862704701222B4912040028086A51
:1014600001D0104300E0904308627047264A0029EB
:10147000516901D0014300E0814351617047224A24
:101480000029916901D0014300E0814391617047D7
:101490001D4A0029D16901D0014300E08143D16197
:1014A0007047194A0029916A01D0014300E0814345
:1014B00091627047144A0029D16801D0014300E0CD
:1014C0008143D1607047104A0029116901D001435E
:1014D00000E08143116170470B4A0029517A01D025
:1014E000014300E08143517270470748416A01227D
:1014F0001206114341627047034A01469268002078
:101500000A4200D001207047001002400CB8FFF8DA
:10151000FFFFF6FE00127A0060000020809FD500D9
:1015200000093D000080000001498872EBE70000DF
:1015300000100240F84910B5884202D10121C414BC
:1015400030E001218907884206D101210846FFF7D2
:10155000BAFF0021012008E0F049884208D10121AA
:101560000220FFF7B0FF00210220FFF7ACFF10BD03
:10157000EB49884206D101211020FFF7A4FF00218A
:101580001020F2E7E749884207D18415012120465F
:10159000FFF799FF00212046E7E7E349884209D198
:1015A00001210C042046FFF785FF00212046FFF7AC
:1015B00081FF10BDDD49884202D101214C04F1E7D1
:1015C000DB498842F5D101218C04EBE710B5028894
:1015D000D14B984206D00124A407A04202D0CF4CA0
:1015E000A04203D17024A2434C882243CC4CA04299
:1015F00003D0D04C22400C89224302804A68C26248
:101600000A880285984208D0C74A904205D0C74A46
:10161000904202D0C64A904201D1897A01860121C6
:10162000818210BD0021C9434160002101800181F8
:1016300041808172704701858282704702887023E1
:101640009A430A430280704741627047C162704703
:10165000406A7047008D704702220029018801D03E
:10166000114300E091430180704704220029018862
:1016700001D0114300E0914301807047802200298E
:10168000018801D0114300E0914301807047028836
:1016900008239A43028002880A4302807047028826
:1016A000A44B1A40028002880A4302807047002936
:1016B000018802D00122114301E04908490001805C
:1016C000704710B50A884B88CC881A438B8823430F
:1016D0001A430B891A434B8989891A430A434030BC
:1016E000828010BD0021018041808180C180018104
:1016F00041818181704740300029818803D00122D7
:10170000D203114301E04904490C8180704770B550
:10171000028C520852000284048C8288038B70254C
:10172000AB439B080D889B001D4302239C438E897D
:101730004B882643784C3343A04208D07A4CA042D1
:1017400005D07A4CA04202D0794CA0420DD1082499
:10175000A343CC891C4304239C438B882343754CAF
:1017600022400C8A14434A8A224382800583896876
:101770004163038470BD70B5028C10239A430284C8
:10178000058C8288038B6C4C23400C782406240C37
:101790001C4320239D438B891B051E0C4B882E4325
:1017A0001B051B0C5C4D3343A84215D18025AB4370
:1017B000CD892D052D0C1D4340239D438B881B0592
:1017C0001B0C2B435D4D2A400D8AAD042D0C154397
:1017D0004A8A9204120C2A438280048389688163B6
:1017E000038470BD30B5028C554B1A400284038CC3
:1017F0008288848B7025AC43A4080D88A4002543FF
:10180000504C23400C7B2406240C1C438B781B0675
:101810001B0C2343404CA04215D14B4C23408C7BE6
:101820002406240C1C43494B1C400B791B061B0C43
:101830002343474C22400C8A2405240C14434A8A33
:101840001205120C2243828085838968C163038458
:1018500030BD30B5028C3F4B1A400284058C828823
:10186000838B354C23400C782406240C1C433A4BC4
:101870001D400B7B1B071B0C2B438D782D072D0C5C
:101880001D43254B984205D1344B13400A8A9205DB
:10189000120C1A438280848389680164058430BDF8
:1018A000002101804180818081608181C18101822C
:1018B0004182704730B5034618330124058C8C40B3
:1018C000A5430584002910D008290ED0091F08045B
:1018D000400CC018016807231B039943016001688D
:1018E0001206120C1143016030BD4808C01801688F
:1018F0007023994301600168F4E741637047816395
:101900007047C163704701647047028B70239A432C
:101910000A43028370470000002C0140000400408D
:101920000010004000200040004001400044014001
:1019300000480140FFFC0000FF8C0000FFF30000A6
:10194000FFFE0000FFFD0000FFF70000FFFB0000AE
:10195000FFCF0000FFEF0000FFDF0000FFBF00002F
:10196000028BF64B09021A4011430183D2E7828BA6
:1019700070239A430A438283CCE7828BEF4B0902A0
:101980001A4011438183C5E70029818802D00122D2
:10199000114301E0490849008180BBE7028B08231D
:1019A0009A430A430283B5E7028BE54B09021A40CA
:1019B00011430183AEE7828B08239A430A43828353
:1019C000A8E7828BDE4B09021A4011438183A1E70D
:1019D000028B04239A430A4302839BE7028BD94B71
:1019E00009021A401143018394E7828B04239A432E
:1019F0000A4382838EE7828BD24B09021A4011433D
:101A0000818387E7028B80239A430A43028381E71D
:101A1000028B5204520C0902114301837AE7828B34
:101A200080239A430A43828374E7828B5204520CC8
:101A30000902114381836DE7028C02239A430A4312
:101A4000028467E7028C08239A430A43028461E711
:101A5000028C20239A430901114301845AE7028C26
:101A600080239A4309011143018453E7028CB64B4A
:101A700009021A40114301844CE7028CB04B090261
:101A80001A401143018445E7028CB04B09031A4008
:101A9000114301843EE7028908239A4302810289A7
:101AA0000A43028136E710B50123048C8B409C4326
:101AB0000484038C8A401343038410BD10B50423AF
:101AC000048C8B409C430484038C8A40134303841E
:101AD00010BD04220029818801D0114300E0914308
:101AE000818017E7828B9A4B1A408283828B09028E
:101AF0000A4382830EE7828B0C239A438283828B74
:101B00000A43828306E7028B914B1A400283028BC1
:101B100009020A430283FDE6F0B5048C1026B443A3
:101B20000484058B048C8B4F1B0309013D402B4320
:101B300012021A43A0239C430C43344302830484BF
:101B4000F0BD028B0C239A430283028B0A4302836B
:101B5000E0E670B5048C640864000484058B048C92
:101B60001B011343F3260A22B54394432B430C4332
:101B700001210C430383048470BDF8B50546088831
:101B80004E888A880B890C4600281DD0042824D052
:101B90000828288C2AD0704908402884A88B2F8CCC
:101BA00031036C4E120230400243180310436B4A5B
:101BB000A88317400F43012109030F432F84E188B5
:101BC0002846FFF78FFFF8BD31462846FFF7C1FFD3
:101BD000E1882846FFF7B5FFF8BD31462846FFF7F4
:101BE0009BFFE1882846FFF78EFFF8BD5C4908405F
:101BF0002884A98B288C3702F3261B01B143134399
:101C00000B435849AB830840FF2138430131084357
:101C10002884E1882846FFF76EFFF8BD0021018087
:101C2000418001228280C180018173E6F8B50C46B3
:101C30004988002601250746002900D10226A288EE
:101C4000012A00D10225208823890028384610D097
:101C5000FFF762FFE1883846FFF755FF23892A46E0
:101C600031463846FFF775FFE1883846FFF769FFD0
:101C7000F8BDFFF76EFFE1883846FFF762FF238962
:101C80002A4631463846FFF747FFE1883846FFF7D6
:101C90003AFFF8BD406B3DE6806B3BE6C06B39E632
:101CA000006C37E6002A828901D00A4300E08A43AB
:101CB00082812FE681822DE60246128A00200A42A6
:101CC00000D0012026E6C943018223E60246138A9A
:101CD000002092890B400A40002B02D0002A00D03D
:101CE000012017E6C943018214E611434030018107
:101CF00010E6002A828901D00A4300E08A438281EB
:101D000008E608220029818801D0114300E09143B0
:101D10008180FFE50189C908C9000181FAE50289CE
:101D200070239A430A430281F4E510B50446FFF795
:101D3000F6FF208907210843208110BDFF8F000096
:101D4000FFF70000FFFB0000FFFD0000FFDF0000C9
:101D5000FFF30000FF0C0000FFEF0000FF5F00003A
:101D6000FFFE0000FFF5000070B516460D46044664
:101D700060290CD001223146FFF7EBFE29462046B0
:101D8000FFF7CDFF208907210843208170BD012284
:101D90003146FFF7C1FEF1E710B504891B0213437A
:101DA000E4B20B432343038110BD10B50446FFF793
:101DB000F3FF2089C108C900072001437020814337
:101DC0000143218110BD10B50446FFF7E5FF2089CE
:101DD000012189030843208110BD828870239A4322
:101DE000828082880A43828094E50289D208D200E8
:101DF000028102890A4302818CE5028980239A4389
:101E0000028102890A43028184E570B50589048B49
:101E1000068CED08ED000D430C4905810C40FF21B7
:101E200002310C43AA218E4319011143314304832B
:101E3000018470BD80220029818801D0114300E017
:101E40009143818066E54030018263E5FCFC00003F
:101E500030B5827801240178002A15D08B08174A02
:101E60009B009A1813688907C90EFF258D40AB4364
:101E70004578AD072D0E8D401D4315600078C006D6
:101E8000C00E84400E4804E0C806C00E84400C48D2
:101E90008030046030BD0B4A0029116901D0014334
:101EA00000E0814311617047042207490428086952
:101EB00002D09043086170471043FBE700E400E064
:101EC00000E100E000ED00E000E000E0854910B531
:101ED000884208D1441501212046FFF7EBFA002182
:101EE0002046FFF7E7FA10BD30B5C2687E4B8C681C
:101EF0001A400B680D792343CC686D032C432343B0
:101F00000C69496923430B431343C36030BD00216F
:101F1000016001718160C160016141617047002908
:101F2000816801D0012200E00222114381607047E4
:101F3000002A026901D00A4300E08A430261704727
:101F40000122D2030029C16801D0114300E091436E
:101F5000C1607047012292030029C16801D011437A
:101F600000E09143C16070470122D2050029C16899
:101F700001D0114300E09143C1607047090411434F
:101F800001627047C2681F239B069A430A43C260DE
:101F90007047012292050029C16801D0114300E079
:101FA0009143C160704701225049D20500288868DA
:101FB00001D0104300E090438860704701224B49F4
:101FC00092050028886801D0104300E090438860A3
:101FD00070470122454912060028886801D0104345
:101FE00000E0904388607047836A0B4383624261DC
:101FF0007047012252030029C16801D0114300E05B
:102000009143C1607047012212040029C16801D0C8
:10201000114300E09143C16070470122120300297F
:10202000C16801D0114300E09143C16070478268EC
:1020300000210123DB071A4382600F231B03826800
:10204000491CD20FD207994201D0002AF7D18168EA
:10205000002901DB006C7047002070478168102266
:102060001143816070478168042211438160704789
:10207000006C80B270470029C16802D00122114370
:1020800001E049084900C1607047C26802239A43D1
:10209000C260C2680A43C2607047002A426801D029
:1020A0000A4300E08A434260704702460020CB01A9
:1020B00004D5926801231B069A4300E012680A4285
:1020C00000D001207047016070470246536800202D
:1020D00012680B400A4202D0002B00D0012070474A
:1020E000016070470024014003D2FFFF0027014038
:1020F0000168454A11400160002101604160816032
:10210000C1604249414A0839904202D148680F22D1
:1021100005E03E4A1432904204D14868F022104350
:1021200048607047394A2832904203D148680F22EC
:102130001202F4E7354A3C32904203D148680F223C
:102140001203ECE7314A50329042EAD148680F223C
:102150001204E4E730B503682D4A0C6A13408A681C
:102160004D6922430C692C4322438C692243CC697C
:1021700022434C6A22438C6A22431A430260CA6893
:1021800042600A6882604968C16030BD0021016018
:1021900041608160C160016141618161C161016231
:1021A0004162816270470029016802D00122114317
:1021B00001E0154A11400160704741607047406876
:1021C00080B27047002A026801D00A4300E08A43C7
:1021D0000260704701460D4A0020083A12680A4220
:1021E00000D001207047094908394860704701460E
:1021F000064A0020083A12680A4200D001207047BF
:102200000249083948607047FEFF0000080002409C
:102210000F80FFFFF74910B5884209D101218C03D7
:102220002046FFF747F900212046FFF743F910BD8C
:10223000F1498842FBD101214C042046FFF743F9C4
:1022400000212046FFF73FF910BD70B50446006835
:1022500088B00D46400840002060606803210903F3
:102260008843A968014361602068E449EA6808403E
:10227000696811432A69024311432160A068032160
:102280000902884369690143A1606846FFF76CF859
:10229000D848844201D1069800E0029821680904D8
:1022A000296801D5490000E089001922504300F057
:1022B00093FB0646642100F08FFB05012809642189
:1022C00048432168301A090407D5C0006421323020
:1022D00000F082FB4007400F06E00001642132302D
:1022E00000F07AFB0007000F2843A08108B070BD02
:1022F0004B21C90101600021416081600C22C16055
:1023000002614161704710B543680F221202934386
:1023100014C922430C6849680C4322431A434260A3
:1023200010BD0021016041608160C16070470029DB
:10233000016802D00122114301E04908490001600F
:102340007047002A026801D00A4300E08A43026015
:1023500070470122D2030029016801D0114300E037
:102360009143016070470122D2020029816801D0A7
:10237000114300E09143816070470122D20400299B
:10238000416801D0114300E0914341607047012250
:1023900092040029416801D0114300E0914341605B
:1023A0007047002A426801D00A4300E08A43426035
:1023B00070470122D2030029416801D0114300E097
:1023C0009143416070470122D2050029416801D044
:1023D000114300E09143416070474269120E1206BA
:1023E000426142690A4342617047028A120A12023C
:1023F0000282028A0A43028270470222002901688F
:1024000001D0114300E091430160704782680323CB
:102410001B059A43826082680A43826070470122EA
:1024200012050029416801D0114300E09143416049
:102430007047426803235B059A43426042680A433F
:1024400042607047C1690122D2039143C161704764
:10245000C905C90D01857047808CC005C00D704746
:1024600042681202120A4260426809060A43426048
:102470007047012252030029016801D0114300E096
:1024800091430160704702680123DB029A430260B6
:1024900002680A4302607047426810239A43426010
:1024A00042680A4342607047426820239A43426070
:1024B00042680A4342607047012292030029416842
:1024C00001D0114300E09143416070470822002988
:1024D000816801D0114300E0914381607047028A16
:1024E000D2B20282028A09020A4302827047202283
:1024F0000029816801D0114300E091438160704759
:1025000010220029816801D0114300E091438160CD
:102510007047826807235B049A438260826849049B
:102520000A438260704742691202120A426142699C
:1025300009060A4342617047826804239A43826015
:1025400082680A438260704702220029816801D0B4
:10255000114300E0914381607047012292030029FA
:10256000816801D0114300E0914381607047826827
:102570000123DB039A43826082680A4382607047CA
:1025800002681F235B059A430260026849050A43FB
:102590000260704702681F231B049A4302600268AE
:1025A00009040A4302607047002A826801D00A4386
:1025B00000E08A4382607047826801235B039A438C
:1025C000826082680A438260704710B50B041C0E5B
:1025D00001238B40022C02D0032C02D002E0001D0C
:1025E00000E008300168002A01D0194300E0994357
:1025F000016010BD0038014000440040F3E9FFFFD6
:10260000002A028B01D00A4300E08A43028370470C
:10261000826801231B039A43826082680A438260B6
:1026200070470246D26900200A4200D0012070475C
:102630000162704730B50A04130E01252A460024B2
:102640008A40012B0ED0022B0ED08368090C134058
:10265000C0698D402840002B02D0002800D0012402
:10266000204630BD0368F1E74368EFE7090C01221B
:102670008A400262704700003248314901600021FF
:1026800041608160C16030494161704710B5837914
:102690002C490268002B26D00B6893430B604A68D4
:1026A00003689A434A600279521813680468234306
:1026B00013608A6803689A438A60CA6803689A4309
:1026C000CA604279102A05D051180A68006802438E
:1026D0000A6010BD8A6803681A438A60CA68006885
:1026E0000243CA6010BD007940180168914301603F
:1026F00010BD0021016001710C224271817170478F
:1027000010490A6902430A6170470E4A014652693C
:1027100000200A4200D0012070470A4948617047F2
:10272000084B0246196800205B691140134202D031
:10273000002900D00120704702494861704700001D
:102740000000940F00040140FFFF6B000748804722
:1027500007480047FEE7FEE7FEE7FEE7FEE7FEE785
:1027600004480549054A064B704700001B2800082D
:10277000B100000810010020100700201003002005
:10278000100300201CB500234E48009301930168FC
:102790000122120411430160510005242403026840
:1027A0000A400192009A521C0092019A002A02D11A
:1027B000009AA242F3D1016889032CD50122424933
:1027C00001920B68102423430B600B6813430B60CA
:1027D000416841604168416041683F221204914371
:1027E00041604168112212041143416001682205D1
:1027F0001143016001688901FCD54168890889009D
:102800004160416802221143416041680907890F14
:102810000229FAD11CBD01931CBD2A48016801227E
:10282000114301604168294A114041600168284A0A
:1028300011400160016801229204914301604168E6
:102840003F22120491434160C16A09090901C16232
:10285000016BFF22543291430163416B49084900E7
:102860004163002181608DE770B5164E71680C20C0
:1028700001401848184C03D0042901D0082901D080
:10288000206014E072687168012392021B04150F26
:102890001940AD1C002907D0F16A0907090F491C2E
:1028A00000F09AF86843EBE70C48454325607068F0
:1028B00009490006000F091D085C2168C14021601C
:1028C00070BD000000100240002002400CB8FFF86C
:1028D000FFFFF6FE00127A007000002000093D00A4
:1028E000704700000FB4054910B503AA029800F024
:1028F0009FFA10BC08BC04B0184700002400002058
:10290000F8B50E460446002020622046E16888475C
:10291000002829D0252802D06268A16820E0E1685B
:1029200020460027884705001ED028464138192830
:1029300002D80127FF02203532462046276029466B
:10294000FDF7F4FB002808D0012804D0F61DF60896
:10295000F6000836D9E7361DD7E762682846A16831
:102960009047206A401CCFE7206AF8BDF7B50025E4
:1029700075291068009914A611D0C046C0460028D9
:1029800002DA404211A608E0009909688A0701D5D9
:102990000FA602E0490704D50EA6012501E0C046B6
:1029A000C046009F0024243704E000F055FA30317F
:1029B0003955641C0028F8D12B4632462146009830
:1029C00000F0DEF9FEBD0000000000002D00000058
:1029D0002B00000020000000002203098B422CD3B2
:1029E000030A8B4211D300239C464EE003460B435F
:1029F0003CD4002243088B4231D303098B421CD3C1
:102A0000030A8B4201D394463FE0C3098B4201D3B2
:102A1000CB01C01A524183098B4201D38B01C01AEA
:102A2000524143098B4201D34B01C01A5241030961
:102A30008B4201D30B01C01A5241C3088B4201D310
:102A4000CB00C01A524183088B4201D38B00C01ABD
:102A5000524143088B4201D34B00C01A5241411AE4
:102A600000D201465241104670475DE0CA0F00D0C7
:102A70004942031000D34042534000229C460309C0
:102A80008B422DD3030A8B4212D3FC22890112BA46
:102A9000030A8B420CD3890192118B4208D389011E
:102AA00092118B4204D389013AD0921100E0890936
:102AB000C3098B4201D3CB01C01A524183098B4217
:102AC00001D38B01C01A524143098B4201D34B0100
:102AD000C01A524103098B4201D30B01C01A524163
:102AE000C3088B4201D3CB00C01A524183088B42EA
:102AF00001D38B00C01A5241D9D243088B4201D373
:102B00004B00C01A5241411A00D20146634652415D
:102B10005B10104601D34042002B00D5494270475C
:102B200063465B1000D3404201B50020C046C0465A
:102B300002BD7047704770470346CA02400D10B58A
:102B400010430A1504D00124E4072043002A05DBC2
:102B50000A4CA21A04D4D040FF2A00DD002010BD88
:102B60004A00002B01D0012000E0002010180122B3
:102B70005205D042F2D8C817C04310BD1E04000051
:102B80001F22030C02D10F22000402D0030E03D037
:102B900004E00020014670470002083A030F01D10B
:102BA0000001121F830F01D18000921E002801DB5B
:102BB0004000521E120551184205C012411810461D
:102BC0007047C10FC90700D040420122920711434C
:102BD000D6E701218907D3E7F0B5FF252D04C60903
:102BE000C209FF2704462E400137CB093E43484027
:102BF0002A402B400746002A6BD0002B69D0AA42FE
:102C000067D0AB4265D0002800DA32460125ED05D9
:102C100029432C4309022002090AD21A4B0C7F24B3
:102C2000E31A434C000A7C44E35C7D24240412191B
:102C300014145B00A218884201D3521C00E040002B
:102C400049420C465C4324115C43DB016415E318E4
:102C5000040A5C43C502200D0C4644436419250A4E
:102C60005D432303EC0C0D46654300030019EB188C
:102C70004C42A34201D35B18401CD4052018002B02
:102C800007D05B00C91804D3401C002901D14008BB
:102C900040003F2189048A4209D3002A08DC11063A
:102CA000090F04D0032149074018C00FC007F0BD29
:102CB00001224100120689187F2252069142F6D263
:102CC00005214907C84201D59010F0BDFF20C0057D
:102CD000F0BD002F00DA32461648AA4207D2AB42B6
:102CE00005D21902090E17D0F80FC007F0BDFF2555
:102CF00063002D06AB42F9D84900A942F6D8AB4291
:102D000001D1A942F2D0A94201D1002101E0610024
:102D10004908D0050843F0BD1102090EFBD0FF2081
:102D20000243D005F0BD0A460146104654E70000B4
:102D30004E0B00000000C07F0102C21504D0012329
:102D4000DB071943002A0ADB9E239A1A02D408469D
:102D5000D0407047FF2241001206914201D9002065
:102D60007047C017C0437047704710B500F008F9AE
:102D7000006810BD10B5044600F002F9046010BDF3
:102D8000FFB504460D4681B02430009021688806C6
:102D900004D51022E0699143216000E00120A8429F
:102DA00001DD471B00E000270498A1697A1910187B
:102DB000081AA0612078C00602D42046C046C0464A
:102DC000002608E003986268A168805D9047206A49
:102DD000401C761C206204988642F3DB2078C006F3
:102DE0000AD52046C046C04606E06268A168302089
:102DF0009047206A401C206238467F1E0028F4DC81
:102E000007E000986268A168405D9047206A401C16
:102E1000206228466D1E0028F3DC2046C046C046CE
:102E20002078000602D5022005B0F0BD0120FBE7A6
:102E3000084B70B50D467B4400F0ABF804462846BD
:102E400000F0BAF8002802D00020C04370BD204630
:102E500070BD0000C9DAFFFF01468008081A0209A8
:102E60001018020A1018020C1018C008820012185C
:102E70005200891A01E0401C0A390A29FBD2704726
:102E8000F0B53D4B02460C461C400020002C63D0A0
:102E90003A4D8B4366D000296BDB0B0D1D05A94312
:102EA00001252D0529430124FD33E34001D3921868
:102EB0004941FF3381339C468B02940D012123430A
:102EC00089074C42920200271B198C105D1A04D40A
:102ED0002D1B02D42B466500491992185B416408EA
:102EE000F4D15C1A08D40125ED07EE175519744189
:102EF00002D42A462346491C94185B4101229207BA
:102F00001D46E61B8D4106D4B61A854103D42B46D7
:102F1000550034467F1924195B415208802AEFD1AD
:102F2000234300D0022338460A22D04001D3012295
:102F300013438A0510436246890A12058918002B3B
:102F400009D00122D34002D30022401C5141002B62
:102F500001D140084000F0BD0B03134307D0C90F57
:102F6000C907F0BD0803104303D1002901DB104657
:102F7000F0BD00202946F0BD0000F07F0000F87F82
:102F800000487047B000002001694A1C02610878BF
:102F9000704700B58FB0029100210591054901935A
:102FA00079440391114604906846FFF7A9FC0FB0DD
:102FB00000BD0000E5FFFFFFC068802108407047AA
:102FC00000487047B00000207546FFF7F9FFAE4695
:102FD000050069465346C008C000854618B020B5B4
:102FE000FFF7BEFB60BC00274908B6460026C0C5F7
:102FF000C0C5C0C5C0C5C0C5C0C5C0C5C0C5403DB1
:1030000049008D46704710B50446C046C04620466C
:10301000FDF7A1F810BD0000F8B506460C46FFF715
:103020002FFF051E0F4600D00120014349000B4829
:103030004908411AC90F0DD0002E01D0012100E02E
:1030400000210C4361004908401AC00F02D1012041
:10305000FFF790FE28463946F8BD00000000F07FDB
:1030600070B5420064414B005C41120E39D01B0E1A
:1030700038D0FF2A3CD0FF2B3AD040024902400A08
:10308000490A060045184E43000A090AD218484367
:10309000ED017F3A0104731A4019190C4318990F76
:1030A00004D001215B0849075B1A521CD80904D3DC
:1030B000401CF50301D19D0607D0FF2A08D2D50593
:1030C00006D0E4072043401970BD0125A843F4E76A
:1030D000002A01DCE00770BD2402FF202043C00568
:1030E00070BD1B0EFF2A03D0FF2B01D0E00770BD7F
:1030F000FF2645003606B54206D84D00B54203D836
:10310000D218FF2A00D0E7E7004870BD0000C07F5A
:103110000000003F9A99193F9A99193F9A99193FCF
:103120009A99193F9A99193F9A99193F9A99193F73
:103130009A99193F9A99193F9A99193F9A99193F63
:103140009A99193F9A99193F9A99193F9A99193F53
:103150009A99193F9A99193F9A99193F9A99193F43
:103160009A99193F9A99193F9A99193F9A99193F33
:103170006666263F6666263F3333333F0000403F96
:10318000CDCC4C3F9A99593F6666663F6666663F6E
:103190006666663F0000803F0000803F0000803F81
:1031A0006666863FCDCC8C3F3333933F9A99993FE7
:1031B0000000A03F0000A03F6666A63FCDCCAC3F1C
:1031C0003333B33F9A99B93F0000C03F0000C03F7E
:1031D0006666C63FCDCCCC3FCDCCCC3FCDCCCC3F32
:1031E0003333D33F3333D33F3333D33F3333D33FFF
:1031F0003333D33F9A99D93F0000E03F6666E63FFC
:10320000CDCCEC3FCDCCEC3FCDCCEC3FCDCCEC3FAE
:10321000CDCCEC3F3333F33F9A99F93F00000040A7
:1032200033330340666606406666064066660640BF
:103230009A990940CDCC0C40000010403333134024
:10324000666616409A9919400000204033332340A7
:10325000666626409A992940CDCC2C40000030402B
:1032600066663640CDCC3C40333343409A99494062
:103270000000504033335340666656409A99594097
:10328000CDCC5C40000060403333634066666640EE
:103290009A9969400000704066667640CDCC7C40CB
:1032A0009A998140CDCC84400000884033338B40D4
:1032B00066668E409A999140CDCC94406666964061
:1032C000000098409A999940CDCC9C400000A040C5
:1032D0003333A3406666A6409A99A940CDCCAC4052
:1032E0000000B0403333B340CDCCB4406666B64046
:1032F0006666B6400000B8409A99B940CDCCBC4053
:103300000000C0403333C3406666C6409A99C94046
:10331000CDCCCC400000D0403333D3406666D6409D
:103320009A99D940CDCCDC400000E0403333E340F3
:103330006666E6409A99E940CDCCEC400000F0404A
:103340003333F3406666F6409A99F940CDCCFC40A1
:10335000000000419A99014133330341CDCC04412F
:1033600066660641000008419A99094133330B41D2
:1033700033330B4133330B41CDCC0C4166660E41E8
:10338000000010419A99114133331341CDCC1441BF
:103390006666164133331741000018419A99194166
:1033A00033331B41CDCC1C4166661E4100002041D9
:1033B0009A99214133332341CDCC2441CDCC2441B2
:1033C00066662641000028419A99294133332B41F2
:1033D000CDCC2C4166662E41000030419A99314196
:1033E00033333341CDCC3441666636410000384139
:1033F0009A99394133333B41CDCC3C4166663E41DD
:10340000000040419A9941413333434133334341B2
:10341000CDCC444166664641000048419A994941F5
:1034200033334B41CDCC4C4166664E410000504198
:103430009A99514133335341CDCC54410000584106
:1034400033335B4166665E419A9961413333634130
:10345000CDCC6441666666410000684166666E4197
:103460003333734100007841CDCC7C41CDCC8041D9
:10347000333383419A9985410000884166668A41C9
:10348000CDCC8C41CDCC8C410000904100009441CA
:103490000000984100009C410000A0410000A441B0
:1034A0000000A8410000AC410000B0416666B24196
:1034B000CDCCB4413333B7419A99B9410000BC41F6
:1034C0006666BE41CDCCC0413333C3419A99C541F4
:1034D0000000C8416666CA416666CE419A99D141EC
:1034E0000000D4416666D641CDCCD8413333DB41B0
:1034F0009A99DD410000E0416666E241CDCCE441AD
:103500000000E8413333EB416666EE419A99F141A0
:10351000CDCCF4410000F8413333FB413333FF415C
:103520009A99014233330342CDCC04426666064287
:10353000000008429A99094233330B42CDCC0C4229
:1035400066660E42000010429A99114233331342CC
:10355000CDCC144266661642000018429A99194270
:1035600033331B42CDCC1C4266661E420000204213
:103570009A99214233332342000020429A992542EE
:10358000333327429A99294233332B42CDCC2C42F4
:1035900066662E42000030429A9931420000344261
:1035A000000036420000384200003A4200003C422F
:1035B00000003E42000040420000424200004442FF
:1035C000000046420000484200004A4200004C42CF
:1035D00000004E420000504200005242000054429F
:1035E0000000584200005A4200005C429A995D4235
:1035F00033335F42CDCC6042666662420000644273
:103600009A99654233336742CDCC684266666A4216
:1036100000006C429A996D4233336F42CDCC7042B8
:1036200066667242000074429A997542333377425B
:10363000CDCC784266667A4200007C4200007E4231
:10364000000080420000814200008242000083426C
:10365000000084420000854200008642000087424C
:10366000000088420000894200008A4200008B422C
:1036700000008C4200008D4200008E4200008F420C
:103680000000904200009142000092429A999342B9
:1036900033339542CDCC96426666984200009A42FA
:1036A0009A999B4233339D42CDCC9E426666A0429E
:1036B0000000A2420000A4420000A8420000AC4268
:1036C0000000B0420000B4420000B6420000B84220
:1036D0000000BA420000BC420000BE420000C042EE
:1036E0000000C2420000C4420000C6420000C842BE
:1036F0000000C8420000C8420000C8420000C842A2
:103700000000C8420000C8420000C8420000C84291
:103710000000C8420000C8420000C8420000C84281
:103720000000C8420000C8420000C8420000C84271
:103730000000C8420000C8420000C8420000C84261
:103740000000C8420000C8420000C8420000C84251
:103750000000C8420000C8420000C8420000C84241
:103760000000C8420000C8420000C8420000C84231
:103770000000C8420000C842818283848586878811
:10378000898B8C8D8E8F919293959697999A9C9D0B
:103790009FA0A2A3A5A7A8AAACAEB0B2B3B5B7B973
:1037A000BCBEC0C2C5C7C9CCCED1D4D7D9DCDFE23C
:1037B000E6E9ECF0F3F7FAFED83700080000002045
:1037C00084000000F40000085C3800088400002039
:1037D0008C0600001001000800000000000000003E
:1037E00000000000000000000000000001000000D8
:1037F00000000000000000000000000000000000C9
:1038000000000000C800006400000000000000008C
:103810000000000000000000480D00000000000053
:103820000000000000000000000000000000000098
:10383000000000000000000000000000010203047E
:103840000102030406070809006CDC020000000006
:0C38500000000000010203040607080944
:04000005080000B13E
:00000001FF
